{
  "contractName": "BallotSignIn",
  "abi": [
    {
      "constant": true,
      "inputs": [
        {
          "name": "",
          "type": "address"
        }
      ],
      "name": "isOrganizer",
      "outputs": [
        {
          "name": "",
          "type": "bool"
        }
      ],
      "payable": false,
      "stateMutability": "view",
      "type": "function"
    },
    {
      "constant": false,
      "inputs": [],
      "name": "renounceOwnership",
      "outputs": [],
      "payable": false,
      "stateMutability": "nonpayable",
      "type": "function"
    },
    {
      "constant": true,
      "inputs": [
        {
          "name": "",
          "type": "string"
        }
      ],
      "name": "eventToBallot",
      "outputs": [
        {
          "name": "numPos",
          "type": "uint256"
        },
        {
          "name": "organizer",
          "type": "address"
        }
      ],
      "payable": false,
      "stateMutability": "view",
      "type": "function"
    },
    {
      "constant": true,
      "inputs": [],
      "name": "owner",
      "outputs": [
        {
          "name": "",
          "type": "address"
        }
      ],
      "payable": false,
      "stateMutability": "view",
      "type": "function"
    },
    {
      "constant": true,
      "inputs": [],
      "name": "isOwner",
      "outputs": [
        {
          "name": "",
          "type": "bool"
        }
      ],
      "payable": false,
      "stateMutability": "view",
      "type": "function"
    },
    {
      "constant": false,
      "inputs": [
        {
          "name": "_organizer",
          "type": "address"
        },
        {
          "name": "_eventId",
          "type": "string"
        }
      ],
      "name": "approveEvent",
      "outputs": [],
      "payable": false,
      "stateMutability": "nonpayable",
      "type": "function"
    },
    {
      "constant": false,
      "inputs": [
        {
          "name": "_organizer",
          "type": "address"
        }
      ],
      "name": "addOrganizer",
      "outputs": [],
      "payable": false,
      "stateMutability": "nonpayable",
      "type": "function"
    },
    {
      "constant": false,
      "inputs": [
        {
          "name": "newOwner",
          "type": "address"
        }
      ],
      "name": "transferOwnership",
      "outputs": [],
      "payable": false,
      "stateMutability": "nonpayable",
      "type": "function"
    },
    {
      "anonymous": false,
      "inputs": [
        {
          "indexed": true,
          "name": "previousOwner",
          "type": "address"
        },
        {
          "indexed": true,
          "name": "newOwner",
          "type": "address"
        }
      ],
      "name": "OwnershipTransferred",
      "type": "event"
    },
    {
      "constant": true,
      "inputs": [
        {
          "name": "_attendee",
          "type": "address"
        },
        {
          "name": "_eventId",
          "type": "string"
        }
      ],
      "name": "isAttendee",
      "outputs": [
        {
          "name": "",
          "type": "bool"
        }
      ],
      "payable": false,
      "stateMutability": "view",
      "type": "function"
    },
    {
      "constant": false,
      "inputs": [
        {
          "name": "_attendee",
          "type": "address"
        },
        {
          "name": "_eventId",
          "type": "string"
        }
      ],
      "name": "addAttendee",
      "outputs": [],
      "payable": false,
      "stateMutability": "nonpayable",
      "type": "function"
    }
  ],
  "bytecode": "0x6080604052336000806101000a81548173ffffffffffffffffffffffffffffffffffffffff021916908373ffffffffffffffffffffffffffffffffffffffff1602179055506000809054906101000a900473ffffffffffffffffffffffffffffffffffffffff1673ffffffffffffffffffffffffffffffffffffffff16600073ffffffffffffffffffffffffffffffffffffffff167f8be0079c531659141344cd1fd0a4f28419497f9722a3daafe3b4186f6b6457e060405160405180910390a36112ea806100cf6000396000f3fe608060405234801561001057600080fd5b506004361061009e5760003560e01c8063b6b2c1ed11610066578063b6b2c1ed14610277578063bb028efb14610352578063e4725f0214610445578063f18c2b7714610489578063f2fde38b146105645761009e565b806341676f15146100a3578063715018a6146100ff5780637a12afe3146101095780638da5cb5b1461020b5780638f32d59b14610255575b600080fd5b6100e5600480360360208110156100b957600080fd5b81019080803573ffffffffffffffffffffffffffffffffffffffff1690602001909291905050506105a8565b604051808215151515815260200191505060405180910390f35b6101076105c8565b005b6101c26004803603602081101561011f57600080fd5b810190808035906020019064010000000081111561013c57600080fd5b82018360208201111561014e57600080fd5b8035906020019184600183028401116401000000008311171561017057600080fd5b91908080601f016020809104026020016040519081016040528093929190818152602001838380828437600081840152601f19601f820116905080830192505050505050509192919290505050610701565b604051808381526020018273ffffffffffffffffffffffffffffffffffffffff1673ffffffffffffffffffffffffffffffffffffffff1681526020019250505060405180910390f35b61021361075b565b604051808273ffffffffffffffffffffffffffffffffffffffff1673ffffffffffffffffffffffffffffffffffffffff16815260200191505060405180910390f35b61025d610784565b604051808215151515815260200191505060405180910390f35b6103506004803603604081101561028d57600080fd5b81019080803573ffffffffffffffffffffffffffffffffffffffff169060200190929190803590602001906401000000008111156102ca57600080fd5b8201836020820111156102dc57600080fd5b803590602001918460018302840111640100000000831117156102fe57600080fd5b91908080601f016020809104026020016040519081016040528093929190818152602001838380828437600081840152601f19601f8201169050808301925050505050505091929192905050506107db565b005b61042b6004803603604081101561036857600080fd5b81019080803573ffffffffffffffffffffffffffffffffffffffff169060200190929190803590602001906401000000008111156103a557600080fd5b8201836020820111156103b757600080fd5b803590602001918460018302840111640100000000831117156103d957600080fd5b91908080601f016020809104026020016040519081016040528093929190818152602001838380828437600081840152601f19601f820116905080830192505050505050509192919290505050610ad4565b604051808215151515815260200191505060405180910390f35b6104876004803603602081101561045b57600080fd5b81019080803573ffffffffffffffffffffffffffffffffffffffff169060200190929190505050610b95565b005b6105626004803603604081101561049f57600080fd5b81019080803573ffffffffffffffffffffffffffffffffffffffff169060200190929190803590602001906401000000008111156104dc57600080fd5b8201836020820111156104ee57600080fd5b8035906020019184600183028401116401000000008311171561051057600080fd5b91908080601f016020809104026020016040519081016040528093929190818152602001838380828437600081840152601f19601f820116905080830192505050505050509192919290505050610d98565b005b6105a66004803603602081101561057a57600080fd5b81019080803573ffffffffffffffffffffffffffffffffffffffff16906020019092919050505061102f565b005b60016020528060005260406000206000915054906101000a900460ff1681565b6105d0610784565b610642576040517f08c379a00000000000000000000000000000000000000000000000000000000081526004018080602001828103825260208152602001807f4f776e61626c653a2063616c6c6572206973206e6f7420746865206f776e657281525060200191505060405180910390fd5b600073ffffffffffffffffffffffffffffffffffffffff166000809054906101000a900473ffffffffffffffffffffffffffffffffffffffff1673ffffffffffffffffffffffffffffffffffffffff167f8be0079c531659141344cd1fd0a4f28419497f9722a3daafe3b4186f6b6457e060405160405180910390a360008060006101000a81548173ffffffffffffffffffffffffffffffffffffffff021916908373ffffffffffffffffffffffffffffffffffffffff160217905550565b6002818051602081018201805184825260208301602085012081835280955050505050506000915090508060000154908060010160009054906101000a900473ffffffffffffffffffffffffffffffffffffffff16905082565b60008060009054906101000a900473ffffffffffffffffffffffffffffffffffffffff16905090565b60008060009054906101000a900473ffffffffffffffffffffffffffffffffffffffff1673ffffffffffffffffffffffffffffffffffffffff163373ffffffffffffffffffffffffffffffffffffffff1614905090565b6107e3610784565b610855576040517f08c379a00000000000000000000000000000000000000000000000000000000081526004018080602001828103825260208152602001807f4f776e61626c653a2063616c6c6572206973206e6f7420746865206f776e657281525060200191505060405180910390fd5b600160008373ffffffffffffffffffffffffffffffffffffffff1673ffffffffffffffffffffffffffffffffffffffff16815260200190815260200160002060009054906101000a900460ff16610914576040517f08c379a000000000000000000000000000000000000000000000000000000000815260040180806020018281038252601f8152602001807f4f6e6c79206f7267616e697a65722063616e20686f6c64206576656e74732e0081525060200191505060405180910390fd5b600073ffffffffffffffffffffffffffffffffffffffff166002826040518082805190602001908083835b60208310610962578051825260208201915060208101905060208303925061093f565b6001836020036101000a038019825116818451168082178552505050505050905001915050908152602001604051809103902060010160009054906101000a900473ffffffffffffffffffffffffffffffffffffffff1673ffffffffffffffffffffffffffffffffffffffff1614610a25576040517f08c379a00000000000000000000000000000000000000000000000000000000081526004018080602001828103825260288152602001806112976028913960400191505060405180910390fd5b816002826040518082805190602001908083835b60208310610a5c5780518252602082019150602081019050602083039250610a39565b6001836020036101000a038019825116818451168082178552505050505050905001915050908152602001604051809103902060010160006101000a81548173ffffffffffffffffffffffffffffffffffffffff021916908373ffffffffffffffffffffffffffffffffffffffff1602179055505050565b60006002826040518082805190602001908083835b60208310610b0c5780518252602082019150602081019050602083039250610ae9565b6001836020036101000a038019825116818451168082178552505050505050905001915050908152602001604051809103902060020160008473ffffffffffffffffffffffffffffffffffffffff1673ffffffffffffffffffffffffffffffffffffffff16815260200190815260200160002060009054906101000a900460ff16905092915050565b610b9d610784565b610c0f576040517f08c379a00000000000000000000000000000000000000000000000000000000081526004018080602001828103825260208152602001807f4f776e61626c653a2063616c6c6572206973206e6f7420746865206f776e657281525060200191505060405180910390fd5b600160008273ffffffffffffffffffffffffffffffffffffffff1673ffffffffffffffffffffffffffffffffffffffff16815260200190815260200160002060009054906101000a900460ff1615610cb2576040517f08c379a000000000000000000000000000000000000000000000000000000000815260040180806020018281038252602581526020018061124e6025913960400191505060405180910390fd5b8073ffffffffffffffffffffffffffffffffffffffff16610cd161075b565b73ffffffffffffffffffffffffffffffffffffffff161415610d3e576040517f08c379a000000000000000000000000000000000000000000000000000000000815260040180806020018281038252602e8152602001806111fa602e913960400191505060405180910390fd5b60018060008373ffffffffffffffffffffffffffffffffffffffff1673ffffffffffffffffffffffffffffffffffffffff16815260200190815260200160002060006101000a81548160ff02191690831515021790555050565b80600160003373ffffffffffffffffffffffffffffffffffffffff1673ffffffffffffffffffffffffffffffffffffffff16815260200190815260200160002060009054906101000a900460ff16610e3b576040517f08c379a00000000000000000000000000000000000000000000000000000000081526004018080602001828103825260248152602001806112736024913960400191505060405180910390fd5b6002816040518082805190602001908083835b60208310610e715780518252602082019150602081019050602083039250610e4e565b6001836020036101000a038019825116818451168082178552505050505050905001915050908152602001604051809103902060010160009054906101000a900473ffffffffffffffffffffffffffffffffffffffff1673ffffffffffffffffffffffffffffffffffffffff163373ffffffffffffffffffffffffffffffffffffffff1614610f68576040517f08c379a000000000000000000000000000000000000000000000000000000000815260040180806020018281038252601e8152602001807f5468652073656e646572206d757374206f776e207468652042616c6c6f74000081525060200191505060405180910390fd5b60016002836040518082805190602001908083835b60208310610fa05780518252602082019150602081019050602083039250610f7d565b6001836020036101000a038019825116818451168082178552505050505050905001915050908152602001604051809103902060020160008573ffffffffffffffffffffffffffffffffffffffff1673ffffffffffffffffffffffffffffffffffffffff16815260200190815260200160002060006101000a81548160ff021916908315150217905550505050565b611037610784565b6110a9576040517f08c379a00000000000000000000000000000000000000000000000000000000081526004018080602001828103825260208152602001807f4f776e61626c653a2063616c6c6572206973206e6f7420746865206f776e657281525060200191505060405180910390fd5b6110b2816110b5565b50565b600073ffffffffffffffffffffffffffffffffffffffff168173ffffffffffffffffffffffffffffffffffffffff16141561113b576040517f08c379a00000000000000000000000000000000000000000000000000000000081526004018080602001828103825260268152602001806112286026913960400191505060405180910390fd5b8073ffffffffffffffffffffffffffffffffffffffff166000809054906101000a900473ffffffffffffffffffffffffffffffffffffffff1673ffffffffffffffffffffffffffffffffffffffff167f8be0079c531659141344cd1fd0a4f28419497f9722a3daafe3b4186f6b6457e060405160405180910390a3806000806101000a81548173ffffffffffffffffffffffffffffffffffffffff021916908373ffffffffffffffffffffffffffffffffffffffff1602179055505056fe4f776e65722063616e206e6f7420616464207468656d73656c76657320617320746865206f7267616e697a65722e4f776e61626c653a206e6577206f776e657220697320746865207a65726f2061646472657373546865206f7267616e697a65722068617320616c7265616479206265656e2061646465642e5468652073656e646572206d75737420626520612076616c6964206f7267616e697a65724f6e6c7920756e61737369676e6564206576656e7449642063616e20626520617070726f7665642ea165627a7a72305820ac09dca640e195afde42d2be8944b9ab81b5aeb8288ad831104205ba7442e2240029",
  "source": "pragma solidity ^0.5.8;\n\nimport './ballots/BallotManager.sol';\n\ncontract BallotSignIn is BallotManager {\n\n    modifier onlyOrganizerOf(string memory _eventId) {\n        require(isOrganizer[msg.sender], \"The sender must be a valid organizer\");\n        require(msg.sender == eventToBallot[_eventId].organizer, \"The sender must own the Ballot\");\n        _;\n    }\n\n    function isAttendee(address _attendee, string memory _eventId) public view returns (bool){\n        return eventToBallot[_eventId].isAttendee[_attendee];\n    }\n\n    function addAttendee(address _attendee, string memory _eventId) public onlyOrganizerOf(_eventId) {\n        eventToBallot[_eventId].isAttendee[_attendee] = true;\n    }\n}",
  "sourcePath": "/Users/fujian/CMU/Studio/pinocchioDapp/contracts/BallotSignIn.sol",
  "compiler": {
    "name": "solc",
    "version": "0.5.8+commit.23d335f2.Emscripten.clang"
  },
  "schemaVersion": "3.0.11",
  "updatedAt": "2019-07-30T18:58:41.088Z",
  "devdoc": {
    "methods": {
      "isOwner()": {
        "details": "Returns true if the caller is the current owner."
      },
      "owner()": {
        "details": "Returns the address of the current owner."
      },
      "renounceOwnership()": {
        "details": "Leaves the contract without owner. It will not be possible to call `onlyOwner` functions anymore. Can only be called by the current owner.     * > Note: Renouncing ownership will leave the contract without an owner, thereby removing any functionality that is only available to the owner."
      },
      "transferOwnership(address)": {
        "details": "Transfers ownership of the contract to a new account (`newOwner`). Can only be called by the current owner."
      }
    }
  },
  "userdoc": {
    "methods": {}
  }
}